:040DC00025640A009C
:100D8900010B800108800114FF02128000020C7F10
:0D0D9900FF0209800002107FFF020E8000A3
:050DBB008E0E8F0F22D7
:020CDA008D2764
:100CDC007529A0C3EF950FEE950E5045EFF528E55D
:100CEC000F9410E50E94004005EEF52A8007AF0630
:100CFC00EE25E04229120000AF29120000D3E50FC7
:100D0C009410E50E94004005AF2A120000AF281293
:100D1C000000AF271200001200007F0A7E001200B4
:010D2C0000C6
:010D2D0022A3
:100C7600E4F5287529A0C3EF950FEE950E5052EFB7
:100C8600F527E50F9410E50E94004005EEF52A8051
:100C960007AF06EE25E04229120000AF2912000038
:100CA600D3E50F9410E50E94004005AF2A1200001C
:100CB600AF27120000120000E5294401FF120000D0
:100CC600E4FF1200008F281200007F0A7E00120047
:030CD60000AF2844
:010CD90022F8
:100DA7007590017FF47E01120000E4F5907FF47ED8
:040DB7000102000035
:100D2E00E4F522F523F52475253B7D02AF23AE2293
:100D3E00120CDAAF23AE22120C768F267BFF7A0DC1
:100D4E0079C085262A120862E52664026005120D16
:030D5E00A780FB70
:010D6100226F
:03000000020BEA06
:0C0BEA00787FE4F6D8FD75813A020C31EA
:10080000E536242AF8E60536227827300702782ACA
:10081000E475F001120BB4020B5C2000EB7F2ED2CA
:10082000008018EF540F2490D43440D4FF30040BD0
:10083000EF24BFB41A0050032461FFE537600215AE
:1008400037053AE53A7002053930070D7827E47527
:10085000F001120BB4EF020BA2020D627403D20777
:100860008003E4C207F5368B278A288929E4F53707
:10087000F539F53AE53760077F2012083B80F575BA
:1008800038FFC201C200C202C203C205C206C208CA
:10089000120809FF700D3007057F0012084CAF3AAF
:1008A000AE3922B4255FC2D5C204120809FF24D094
:1008B000B40A00501A75F00A783730D50508B6FF2B
:1008C0000106C6A426F620D5047002D20380D924DE
:1008D000CFB41A00EF5004C2E5D204020A4CD20190
:1008E00080C6D20080C0D20280BCD2D580BAD205E8
:1008F00080B47F2012083B2002077401B537004006
:10090000F1120800FF12083B020874D208D20680D8
:1009100095120800FB120800FA120800F94A4B7001
:1009200006791D7A0B7BFF20022EE537602A7E00B8
:100930008E82758300120B7560060EEE653870F0BE
:10094000C2D5EBC0E0EAC0E0E9C0E0EE120A93D005
:10095000E0F9D0E0FAD0E0FB120B5CFF60AAEBC03C
:10096000E0EAC0E0E9C0E012083BD0E02401F9D0A1
:10097000E03400FAD0E0FBE5380460DCD538D980FB
:10098000877BFF7A0A798FD202809C791080027966
:1009900008C206C2088008D2D5790A8004790AC242
:1009A000D5E538047002F538E4FAFDFEFF120800C0
:1009B000FC7B08200113120800FD7B1030000A1296
:1009C0000800FE120800FF7B20EC3382D592D55040
:1009D00013C3E43000069FFFE49EFEE42001039D64
:1009E000FDE49CFCE4CBF8C201EC700CCFCECDCC86
:1009F000E824F8F870F38017C3EF33FFEE33FEED11
:100A000033FDEC33FCEB33FB994002FB0FD8E9EBF1
:100A1000300105F8D0E0C448B201C0E00AEC4D4E08
:100A20004F78207B0070C2EAB5380040BCC0E012AD
:100A30000A95D0F0D0E0200104C4C0E0C4B201C0E7
:100A4000F0120824D0F0D5F0EB020874120BC409A0
:100A50001153098B5808E24C08DE42098F4F099761
:0F0A60004409974908F743099D550981460981C3
:100A6F00450981470B3D5008E62D08EA2E090D2B4D
:100A7F0008EE23090B200B262A08A64800000905BB
:100A8F003F3F3F00790AA2D5200314300509B91062
:100A9F00020404B9080104A2D52006025001042063
:100AAF0002689202B537005034C0E07F203003193E
:100ABF007F30A20272067205500F120AECC202C2F8
:100ACF0006C205C2087F30800F300503E9C0E0126F
:100ADF00083B300503D0E0F9D0E0B537CC3005172F
:100AEF007F30B9100C12083B7F583004077F788095
:100AFF0003B9080312083B3002057F2D02083B7F24
:100B0F00202008F87F2B2006F322920280CF286E38
:100B1F00756C6C2900D2011208003001F8C20178FF
:100B2F003730D50108F60208A62D50434958120850
:100B3F00002403B405004001E4900B389312082CF5
:0D0B4F00743A12082CD20375370402098B8A
:100BF600020D2EE493A3F8E493A34003F68001F2DA
:100C060008DFF48029E493A3F85407240CC8C333FF
:100C1600C4540F4420C8834004F456800146F6DFCE
:100C2600E4800B0102040810204080900D89E47EC8
:100C3600019360BCA3FF543F30E509541FFEE493C3
:100C4600A360010ECF54C025E060A840B8E493A38A
:100C5600FAE493A3F8E493A3C8C582C8CAC583CAB5
:100C6600F0A3C8C582C8CAC583CADFE9DEE780BE6D
:010DA600004C
:100B5C00BB010689828A83E0225002E722BBFE0297
:090B6C00E32289828A83E49322CA
:100B7500BB010CE58229F582E5833AF583E0225035
:100B850006E92582F8E622BBFE06E92582F8E2227F
:0D0B9500E58229F582E5833AF583E4932299
:100BA200BB010689828A83F0225002F722BBFE0132
:020BB200F3222C
:100BB400FAE6FB0808E6F925F0F618E6CA3AF62242
:100BC400D083D082F8E4937012740193700DA3A3C0
:100BD40093F8740193F5828883E4737402936860D4
:060BE400EFA3A3A380DFD4
:100D6200EFB40A07740D120D6D740A309811A89928
:100D7200B8130CC2983098FDA899C298B811F630F1
:070D820099FDC299F59922C9
:00000001FF
